:0400000081319F2982
:1000060008007E14803120007F08F6000B1D0B29A6
:1000160021001C08F50020005C08A03E8600870130
:10002600750881000130F5007508DC070B305C06A9
:100036000319DC015C08343E8600013087000108A4
:10004600F5000130F535FF3E031D2528753581384D
:1000560021009D000130CD070030CE3D711E4528A0
:100066004E08803AF50081307502031D3C282C307D
:100076004D02031C47282100CD01CE01103022007D
:100086008C06472822000C160130F5007508200062
:10009600D8070C305806031D8428D8010130F50016
:1000A60075082100DB0704305B06031D6728DB01AA
:1000B60022008F161030890B5E28003222008F1224
:1000C60020009601970111100130F50075082000F7
:1000D600D707023057060319D70195311D25803100
:1000E600200064085D020318701663085E02031898
:1000F600F01564085D02031C701263085E02031C9F
:10010600F01104305806031DAE285708031DAE280B
:100116000430240092002000DA01F1177113013037
:100126008400983085000008F5007508E10059083C
:10013600F5007508DB000130F5007508D9075B0886
:10014600F50075082100DC0014302000590603195B
:10015600D90124001614043020005806031DC928AE
:100166005703031DC9280430240092002000DA0139
:10017600F113711701308400983085000008F500EE
:100186007508E1002100DF01240016140830200064
:100196005806031DEC285708031DEC2804302400DC
:1001A60092002000DA01F1177113003084009830B4
:1001B60085000008F5007508E10021005E08F500DD
:1001C6007508DC000F30F50075082000DB00240000
:1001D6001614083020005806031D08295703031D6E
:1001E60008290430240092002000DA01F113711767
:1001F60000308400983085000008F5007508E1009D
:100206002100DF01DF0A240016140B1121009D14C2
:100216002000911D72299111F11B2F293D2961356D
:10022600FE391E2921005C081E295B08203E860037
:10023600013087000108240091000130F50075089F
:100246002000DA073D29240016150130F50075084F
:100256002000DA07F1133D295A08003A031912293A
:10026600013A03191529033A03191829013A031902
:1002760026293D29711B642972290314610D240066
:100286009100552924009615552924001108F500DA
:1002960021005F08BC3E86008701750881002400A6
:1002A600961616160130F50075082000DA07722931
:1002B600240016150130F50075082000DA077113C1
:1002C60072295A08003A03194029013A03194529A7
:1002D600033A03194829013A03195B2972290B1CB1
:1002E6009A292700161C83290130F500750820007D
:1002F600D60701302100C9070030CA3D2700161075
:10030600701C902921004008803A803C031D8E29EC
:100316003F08200056020318F0146F302100200217
:10032600031C9A297908230203189A29F0167608DD
:100336002000FF007E1009008131A1298731FF27A7
:100346008131F900F1308400873085006230860003
:10035600003087000E309131682181315D30840094
:1003660091308500E73086000030870005309131F6
:10037600682181316E3084009130850034308600EA
:10038600013087000B30913168218131F001F10194
:10039600F20154308400003085000E309131622124
:1003A6008131A030840000308500413091316221D6
:1003B6008131203084000130850014309131622172
:1003C6007E1020008631A92E790821002302031809
:1003D600592A790820020318592A6F302A0203186D
:1003E600592A45302A02031C592AD50121005508ED
:1003F600031D592A59302A0203181C2A22000F0805
:10040600F0390A388F0041302000CD00EE30890BDC
:100416000A2ACD0B0A2A000022000F08F0398F00A5
:1004260041302000CD00EE30890B172ACD0B172A5C
:1004360000005A3021002A02031C3C2A22000F0821
:10044600F03905388F0041302000CD00EE30890BA1
:100456002A2ACD0B2A2A000022000F08F0398F0025
:1004660041302000CD00EE30890B372ACD0B372ADC
:100476000000593021002A02031CF9295A302A02A9
:100486000318F929D501D50A22000F08F0398F0083
:100496001A302000CE005E30CD006E30890B512A16
:1004A600CD0B512ACE0B512A0000F9292308200032
:1004B60068020318080021002008200068020318BB
:1004C600080022000F08F0398F002000D401D50162
:1004D60022000F08F0398F00D42A803103208131A1
:1004E60022000F08F03905388F0020006A08913184
:1004F6008B21813120002808B2002908B3002A0880
:10050600B4004030AF009C30B0004530B1009731A8
:100516004C27813120002F08BF003008C000310869
:10052600C10096312026813120003F08CD004008C9
:10053600CE004108CF004208D00022000F08F03953
:100546008F002000690891318B2181312000280815
:10055600B2002908B3002A08B4004030AF009C302E
:10056600B0004530B10097314C27813120002F086B
:10057600BF003008C0003108C10096312026813105
:1005860020003F08CD004008CE004108CF004208B9
:10059600D00095319925813101302000D4070030F3
:1005A600D53D523021002302031CE52A20005508C0
:1005B600803ACD008B304D02031DE32AB930540238
:1005C600031C702A2000D401D5014D2B8031032055
:1005D600813122000F08F0390A388F0020006A089E
:1005E60091318B21813120002808B2002908B300FF
:1005F6002A08B4004030AF009C30B0004530B1004E
:1006060097314C27813120002F08BF003008C000E9
:100616003108C10096312026813120003F08CD00E7
:100626004008CE004108CF004208D00022000F0843
:10063600F0398F002000690891318B21813120002B
:100646002808B2002908B3002A08B4004030AF00D9
:100656009C30B0004530B10097314C2781312000E5
:100666002F08BF003008C0003108C100963120268F
:10067600813120003F08CD004008CE004108CF0060
:100686004208D00095319925813101302000D407E8
:100696000030D53D4D302100230203185E2B20008B
:1006A6005508803ACD008B304D02031D5C2BB930C6
:1006B6005402031CE92A2000D401D501C62B80313F
:1006C6000320813122000F08F03908388F002000FE
:1006D6006A0891318B21813120002808B20029084F
:1006E600B3002A08B4004030AF009C30B00045305B
:1006F600B10097314C27813120002F08BF00300808
:10070600C0003108C10096312026813120003F0803
:10071600CD004008CE004108CF004208D00022009C
:100726000F08F0398F002000690891318B21813143
:1007360020002808B2002908B3002A08B400403077
:10074600AF009C30B0004530B10097314C27813165
:1007560020002F08BF003008C0003108C1009631C4
:100766002026813120003F08CD004008CE004108F8
:10077600CF004208D0009531992581310130200003
:10078600D4070030D53D21002008023E2000CD00D0
:10079600003003180130CE004E08803A803C031D1D
:1007A600D72B4D08210023020318E52B20005508FE
:1007B600803ACD008B304D02031DE32BB930540235
:1007C600031C622B2000D401D5014D2C803103205F
:1007D600813122000F08F03902388F0020006A08A4
:1007E60091318B21813120002808B2002908B300FD
:1007F6002A08B4004030AF009C30B0004530B1004C
:1008060097314C27813120002F08BF003008C000E7
:100816003108C10096312026813120003F08CD00E5
:100826004008CE004108CF004208D00022000F0841
:10083600F0398F002000690891318B218131200029
:100846002808B2002908B3002A08B4004030AF00D7
:100856009C30B0004530B10097314C2781312000E3
:100866002F08BF003008C0003108C100963120268D
:10087600813120003F08CD004008CE004108CF005E
:100886004208D00095319925813101302000D407E6
:100896000030D53D21002008023E2000CD0000306A
:1008A60003180130CE004E08803ACF0080304F0248
:1008B600031D612C2100230820004D0203186F2C14
:1008C60020005508803ACD008B304D02031D6D2C5B
:1008D600B9305402031CE92B2000D401D501D72CD2
:1008E60080310320813122000F08F0390A388F0049
:1008F60020006A0891318B21813120002808B2003E
:100906002908B3002A08B4004030AF009C30B0007C
:100916004530B10097314C27813120002F08BF00A8
:100926003008C0003108C1009631202681312000F0
:100936003F08CD004008CE004108CF004208D00055
:1009460022000F08F0398F002000690891318B21B1
:10095600813120002808B2002908B3002A08B40013
:100966004030AF009C30B0004530B10097314C2785
:10097600813120002F08BF003008C0003108C100B7
:1009860096312026813120003F08CD004008CE0058
:100996004108CF004208D0009531992581310130B8
:1009A6002000D4070030D53D4D3021002302031826
:1009B600E82C20005508803ACD008B304D02031DEF
:1009C600E62CB9305402031C732C2000D401D50147
:1009D600523021002302031C08008031032081319C
:1009E60022000F08F03905388F0020006A0891317F
:1009F6008B21813120002808B2002908B3002A087B
:100A0600B4004030AF009C30B0004530B1009731A3
:100A16004C27813120002F08BF003008C000310864
:100A2600C10096312026813120003F08CD004008C4
:100A3600CE004108CF004208D00022000F08F0394E
:100A46008F002000690891318B2181312000280810
:100A5600B2002908B3002A08B4004030AF009C3029
:100A6600B0004530B10097314C27813120002F0866
:100A7600BF003008C0003108C10096312026813100
:100A860020003F08CD004008CE004108CF004208B4
:100A9600D00095319925813101302000D4070030EE
:100AA600D53DEB2C2100290820006202031C612D94
:100AB60021002808200062020318080022000F08FF
:100AC600F0398F000F08F0390A388F002100E10055
:100AD6006108F7001E30913179218531F01C712DA6
:100AE60022000F08F0398F00210029082000620239
:100AF6000318952E21002808200062020318952E5F
:100B060022000F08F0398F002100D701D70A2000F4
:100B1600D6010A2E22000F08F03905388F008230E0
:100B26002100E100DD30890B962DE10B962D003278
:100B360022000F08F0398F004E302100E100EB3023
:100B4600890BA32DE10BA32D2100290820006202A9
:100B56000318D32D21002808200062020318D32D84
:100B66008D2D22000F08F03904388F0082302100C5
:100B7600E100DD30890BBD2DE10BBD2D00322200D9
:100B86000F08F03902388F004E302100E100EB30BB
:100B9600890BCB2DE10BCB2D22000F08F0398F00EE
:100BA60021002908200062020318FF2D6208210097
:100BB60028020318FF2DB42D22000F08F039013842
:100BC6008F0062302100E1006530890BE82DE10BD2
:100BD600E82D003222000F08F03908388F00213046
:100BE6002100E1007630890BF62DE10BF62D000091
:100BF60022000F08F0398F00200062082100290228
:100C060003180A2E280820006202031CDF2D21008B
:100C16002908200062020318162E21002808200049
:100C26006202031CA72D22000F08F0398F00023044
:100C36002100E2004530E100A930890B202EE10BAE
:100C4600202EE20B202E003222000F08F039053844
:100C56008F002100E1006108F700303091317921E1
:100C66008531F01C342E22000F08F0398F001A301F
:100C76002100E2005E30E1006E30890B402EE10B70
:100C8600402EE20B402E0000923120228531913118
:100C9600A6218531F018532E9531992585314D2E93
:100CA60022000F08F0398F00923120228531210071
:100CB6002308790203186F2E9131A6218531F01889
:100CC600682E953199258531622E22000F08F0395C
:100CD6008F0092312022080022000F08F0398F0081
:100CE60002302100E2004530E100A930890B792E5F
:100CF600E10B792EE20B792E0032943146248531B0
:100D060022000F08F0398F0002302100E200453042
:100D1600E100A930890B8D2EE10B8D2EE20B8D2E75
:100D26000032080022000F08F03905388F00210034
:100D3600E1006108F7001E30913179218531F01C00
:100D4600A22E22000F08F0398F00080093311D23D0
:100D5600863120008D1022000F08F0398F00FF30F9
:100D6600250091009B309800210011108B158B16E1
:100D760091150B121113F113711371120730E5005F
:100D86006508C1007F30E5006508C200103021000B
:100D9600E6003930E5000D30890BCF2EE50BCF2E5E
:100DA600E60BCF2E00328B170B302100E6002630E3
:100DB600E5005D30890BDD2EE50BDD2EE60BDD2E25
:100DC600003222000C1620000F1E652F4030210035
:100DD600E6006A30E5009730890BEF2EE50BEF2E23
:100DE600E60BEF2E003220000F1A652F8831042003
:100DF60086319431AF2486311A302100E6005E3008
:100E0600E5006E30890B052FE50B052FE60B052F48
:100E16000000F62E22000F08F0390A388F00210054
:100E2600E5006508F7000330913179218631F01C21
:100E36001A2F22000F08F0398F0002302100E60039
:100E46004530E500A930890B262FE50B262FE60B4A
:100E5600262F00327908210022020318652F01305F
:100E6600E5006508D4078731D027863122000F08B0
:100E7600F0398F009231202286317019642F91311A
:100E8600E3218631F01C452F22000F08F0398F0030
:100E960079082100200203185E2F7908230203181F
:100EA6005E2F9231202286319231BE2286319331D5
:100EB600E1238631642F9131A62186319231202299
:100EC6008631701171128531552586318831492058
:100ED60086318831042086319531992586319631BF
:100EE600A7268631790821002202031C0D2F210036
:100EF600200879020318652F230879020318652F45
:100F060022000F08F0398F0002302100E60045303C
:100F1600E500A930890B8D2FE50B8D2FE60B8D2F64
:100F260000322100200879020318652F2308790270
:100F36000318652F210879020318BE2F923120224B
:100F4600863122000F08F0398F009131A6218631B3
:100F5600F01CAB2F22000F08F0398F009131A6212B
:100F66008631F01CB42F22000F08F0398F00923121
:100F760020228631652F2100D4019231202286312C
:100F86009131A6218631F01CC62F22000F08F039B8
:100F96008F00923120228631652F22000F08F0390A
:100FA6008F000F08F0390A388F002000D30053084D
:100FB600F7004D30913179218731F018EC2F8531CA
:100FC600552587319531992587319631A726873161
:100FD600E02F22000F08F0398F000800EB343A3476
:100FE6003A344B3455343D3424340F3405340C3400
:0A0FF60041340C344534073426342E
:10100800F8010B30780203181E287808A03E8600E5
:1010180087010108F7007808203E86000130870024
:10102800770881000130F7007708F8070B3078025D
:10103800031C092820005608F70077082200AC0096
:101048000D30F7007708AD000E30F7007708AE00D6
:1010580020005E08F70077082200AF002000600833
:10106800F70077082200B00020005D08F700770835
:101078002200B10020005F08F70077082200B200C4
:101088002130F7007708B300080020006508210028
:101098002202031C6C2822000F08F03908388F0040
:1010A8002E302000A5007330890B5828A50B58282E
:1010B80022000F08F0390A388F0055302000A500AB
:1010C8006930890B6528A50B6528953199258831E4
:1010D8002100220820006602031C8F2822000F0826
:1010E800F03902388F002E302000A5007330890BAC
:1010F8007B28A50B7B2822000F08F0390A388F00BF
:1011080055302000A5006930890B8828A50B882850
:10111800953199258831200065082100220203189D
:10112800080022082000660203180800210025088C
:10113800FE3E2000A500FF3003180030A600260858
:10114800803AA70080302702031DAE28210022081C
:10115800200025020318CD2822000F08F03908388E
:101168008F002E302000A5007330890BB928A50BFD
:10117800B92822000F08F0390A388F0055302000AE
:10118800A5006930890BC628A50BC6289531992575
:10119800080021002508023E2000A50000300318A1
:1011A8000130A6002608803A803C031DDE28250869
:1011B800210022020318FD2822000F08F039023806
:1011C8008F002E302000A5007330890BE928A50B6D
:1011D800E92822000F08F0390A388F00553020001E
:1011E800A5006930890BF628A50BF62895319925B5
:1011F800080022000F08F0390A388F0082302000DA
:10120800A500DD30890B0629A50B0629003295318A
:101218009925080021002208200067020318080009
:101228002100250820006702031808002100EA01B0
:1012380002302000A0000030A1002100220825076C
:101248002000A200A301A30D92316C228931200055
:101258002108803AA80080302802031D35294F3024
:1012680020020318802922000F08F03902388F0065
:1012780002302000A9005230A800A630890B42296C
:10128800A80B4229A90B4229000022000F08F039B7
:1012980008388F00F7302000A800BF30890B52298A
:1012A800A80B5229003222000F08F03901388F00AC
:1012B80002302000A9001130A800B730890B62293C
:1012C800A80B6229A90B622922000F08F0390438FB
:1012D8008F0002302000A9001130A800B730890B18
:1012E8007329A80B7329A90B732901302000A800C2
:1012F80028082100EA071C2922000F08F0398F006E
:101308002100EA0102302000A0000030A1002100E5
:10131800220825072000A200A301A30D92316C2208
:10132800893120002108803AA80080302802031D56
:101338009F2950302002031CEF2922000F08F039A2
:1013480008388F0002302000A9004530A800A930D5
:10135800890BAC29A80BAC29A90BAC2900322200B7
:101368000F08F03902388F0002302000A9006630DB
:10137800A8002130890BBE29A80BBE29A90BBE29BC
:1013880022000F08F03904388F0002302000A9002D
:101398002530A8003130890BCF29A80BCF29A90BFC
:1013A800CF29003222000F08F03901388F000230AF
:1013B8002000A9002530A8003130890BE129A80BAD
:1013C800E129A90BE129003201302000A8002808F2
:1013D8002100EA0786292100EA0122000F08F039D6
:1013E8008F00080021002108200067020318080068
:1013F8002100260820006702031808002100EA01DE
:1014080002302000A0000030A1002100210826079A
:101418002000A200A301A30D92316C228931200083
:101428002108803AA80080302802031D1D2A4F3069
:10143800200203187A2A22000F08F03908388F0092
:1014480002302000A9004530A800A930890B2A2ABB
:10145800A80B2A2AA90B2A2A003222000F08F039E1
:101468008F000F08F03902388F0002302000A900E1
:101478006630A8002130890B3F2AA80B3F2AA90B08
:101488003F2A22000F08F0398F000F08F03904387E
:101498008F0002302000A9004530A800A930890B30
:1014A800532AA80B532AA90B532A003222000F08EB
:1014B800F0398F000F08F03901388F000230200012
:1014C800A9004530A800A930890B682AA80B682A0A
:1014D800A90B682A003222000F08F0398F0001306A
:1014E8002000A80028082100EA07042A22000F0883
:1014F800F0398F002100EA0102302000A0000030FE
:10150800A1002100210826072000A200A301A30DA5
:1015180092316C22893120002108803AA80080305D
:101528002802031D992A50302002031CE42A2200B5
:101538000F08F03902388F0002302000A90052301D
:10154800A800A630890BA62AA80BA62AA90BA62AAA
:10155800000022000F08F03908388F00F73020000B
:10156800A800BF30890BB62AA80BB62A0032220081
:101578000F08F03901388F0002302000A90011301F
:10158800A800B730890BC62AA80BC62AA90BC62AF9
:1015980022000F08F03904388F0002302000A9001B
:1015A8001130A800B730890BD72AA80BD72AA90B66
:1015B800D72A01302000A80028082100EA07802A3D
:1015C8002100EA0122000F08F0398F0008002100ED
:1015D80021082000680203180800210026082000BE
:1015E800680203180800D401D5015E2B803103205E
:1015F8008A3122000F08F03908388F0020006A0865
:1016080091318B218A3120002808B2002908B300C3
:101618002A08B4004030AF009C30B0004530B1001B
:1016280097314C278A3120002F08BF003008C000AE
:101638003108C100963120268A3120003F08CD00AC
:101648004008CE004108CF004208D00022000F0811
:10165800F0398F002000690891318B218A312000F0
:101668002808B2002908B3002A08B4004030AF00A7
:101678009C30B0004530B10097314C278A312000AA
:101688002F08BF003008C0003108C100963120265D
:101698008A3120003F08CD004008CE004108CF0025
:1016A8004208D000953199258A3101302000D407AD
:1016B8000030D53D21002608210203186F2B200099
:1016C8005508803ACD008B304D02031D6D2BB93083
:1016D8005402031CFA2A2000D401D5012100210854
:1016E80026020318080020005508803ACD008B30E8
:1016F8004D02031D812BB9305402031808008031B4
:1017080003208A3122000F08F03902388F002000A8
:101718006A0891318B218A3120002808B2002908F3
:10172800B3002A08B4004030AF009C30B000453008
:10173800B10097314C278A3120002F08BF003008AC
:10174800C0003108C100963120268A3120003F08A8
:10175800CD004008CE004108CF004208D00022004A
:101768000F08F0398F002000690891318B218A31E8
:1017780020002808B2002908B3002A08B400403025
:10178800AF009C30B0004530B10097314C278A310A
:1017980020002F08BF003008C0003108C100963172
:1017A80020268A3120003F08CD004008CE0041089D
:1017B800CF004208D000953199258A3101302000A8
:1017C800D4070030D53D722B403021002202031C83
:1017D800080040302502031C08002000D401D50170
:1017E800592C803103208B3122000F08F03908383A
:1017F8008F0020006A0891318B218B312000280846
:10180800B2002908B3002A08B4004030AF009C3069
:10181800B0004530B10097314C278B3120002F089C
:10182800BF003008C0003108C100963120268B3136
:1018380020003F08CD004008CE004108CF004208F4
:10184800D00022000F08F0398F002000690891317C
:101858008B218B3120002808B2002908B3002A0800
:10186800B4004030AF009C30B0004530B100973133
:101878004C278B3120002F08BF003008C0003108EA
:10188800C100963120268B3120003F08CD0040084A
:10189800CE004108CF004208D000953199258B3100
:1018A80001302000D4070030D53D21002508023E34
:1018B8002000CD00003003180130CE004E08803AD9
:1018C800CF0080304F02031D6D2C2100220820001C
:1018D8004D0203187B2C20005508803ACD008B3030
:1018E8004D02031D792CB9305402031CF52B20003E
:1018F800D401D50121002508023E2000CD0000308A
:1019080003180130CE004E08803A803C031D8F2C0E
:101918004D08210022020318080020005508803ACB
:10192800CD008B304D02031D9B2CB9305402031897
:101938000800803103208B3122000F08F03902386B
:101948008F0020006A0891318B218B3120002808F4
:10195800B2002908B3002A08B4004030AF009C3018
:10196800B0004530B10097314C278B3120002F084B
:10197800BF003008C0003108C100963120268B31E5
:1019880020003F08CD004008CE004108CF004208A3
:10199800D00022000F08F0398F002000690891312B
:1019A8008B218B3120002808B2002908B3002A08AF
:1019B800B4004030AF009C30B0004530B1009731E2
:1019C8004C278B3120002F08BF003008C000310899
:1019D800C100963120268B3120003F08CD004008F9
:1019E800CE004108CF004208D000953199258B31AF
:1019F80001302000D4070030D53D7E2C210024087A
:101A08002000680203180800210027082000680247
:101A180003180800732D803103208D3122000F0830
:101A2800F03905388F0020006A0891318B218D31FB
:101A380020002808B2002908B3002A08B400403062
:101A4800AF009C30B0004530B10097314C278D3144
:101A580020002F08BF003008C0003108C1009631AF
:101A680020268D3120003F08CD004008CE004108D7
:101A7800CF004208D00022000F08F0398F00200064
:101A8800690891318B218D3120002808B20029087E
:101A9800B3002A08B4004030AF009C30B000453095
:101AA800B10097314C278D3120002F08BF00300836
:101AB800C0003108C100963120268D3120003F0832
:101AC800CD004008CE004108CF004208D000953133
:101AD80099258D3101302000D4070030D53D513093
:101AE800210027020318842D20005508803ACD00D4
:101AF8008B304D02031D822DB9305402031C0F2D6B
:101B08002000D401D501EC2D803103208D31220035
:101B18000F08F0390A388F0020006A0891318B21AC
:101B28008D3120002808B2002908B3002A08B40023
:101B38004030AF009C30B0004530B10097314C27A1
:101B48008D3120002F08BF003008C0003108C100C7
:101B5800963120268D3120003F08CD004008CE0068
:101B68004108CF004208D00022000F08F0398F004A
:101B78002000690891318B218D3120002808B2009E
:101B88002908B3002A08B4004030AF009C30B000E8
:101B98004530B10097314C278D3120002F08BF0008
:101BA8003008C0003108C100963120268D31200050
:101BB8003F08CD004008CE004108CF004208D000C1
:101BC800953199258D3101302000D4070030D53D5D
:101BD8004E3021002702031CFD2D20005508803AB5
:101BE800CD008B304D02031DFB2DB9305402031C70
:101BF800882D2000D401D501652E803103208D3138
:101C080022000F08F03908388F0020006A08913147
:101C18008B218D3120002808B2002908B3002A083A
:101C2800B4004030AF009C30B0004530B10097316F
:101C38004C278D3120002F08BF003008C000310824
:101C4800C100963120268D3120003F08CD00400884
:101C5800CE004108CF004208D00022000F08F0391A
:101C68008F002000690891318B218D3120002808D0
:101C7800B2002908B3002A08B4004030AF009C30F5
:101C8800B0004530B10097314C278D3120002F0826
:101C9800BF003008C0003108C100963120268D31C0
:101CA80020003F08CD004008CE004108CF00420880
:101CB800D000953199258D3101302000D4070030AE
:101CC800D53D21002708023E2000CD000030031832
:101CD8000130CE004E08803ACF0080304F02031DFD
:101CE800792E2100240820004D020318872E200099
:101CF8005508803ACD008B304D02031D852EB93032
:101D08005402031C012E2000D401D501EF2E80318E
:101D180003208D3122000F08F03902388F0020008F
:101D28006A0891318B218D3120002808B2002908DA
:101D3800B3002A08B4004030AF009C30B0004530F2
:101D4800B10097314C278D3120002F08BF00300893
:101D5800C0003108C100963120268D3120003F088F
:101D6800CD004008CE004108CF004208D000220034
:101D78000F08F0398F002000690891318B218D31CF
:101D880020002808B2002908B3002A08B40040300F
:101D9800AF009C30B0004530B10097314C278D31F1
:101DA80020002F08BF003008C0003108C10096315C
:101DB80020268D3120003F08CD004008CE00410884
:101DC800CF004208D000953199258D31013020008F
:101DD800D4070030D53D21002708023E2000CD0061
:101DE800003003180130CE004E08803A803C031DB5
:101DF800002F4D082100240203180E2F200055083B
:101E0800803ACD008B304D02031D0C2FB93054029F
:101E1800031C8B2E2000D401D501762F803103209E
:101E28008D3122000F08F03905388F0020006A082C
:101E380091318B218D3120002808B2002908B30088
:101E48002A08B4004030AF009C30B0004530B100E3
:101E580097314C278D3120002F08BF003008C00073
:101E68003108C100963120268D3120003F08CD0071
:101E78004008CE004108CF004208D00022000F08D9
:101E8800F0398F002000690891318B218D312000B5
:101E98002808B2002908B3002A08B4004030AF006F
:101EA8009C30B0004530B10097314C278D3120006F
:101EB8002F08BF003008C0003108C1009631202625
:101EC8008D3120003F08CD004008CE004108CF00EA
:101ED8004208D000953199258D3101302000D40772
:101EE8000030D53D5130210027020318872F2000EC
:101EF8005508803ACD008B304D02031D852FB9302F
:101F08005402031C122F2000D401D5014E302100A9
:101F18002702031C080020005508803ACD008B30AA
:101F28004D02031D992FB93054020318080080315F
:101F380003208D3122000F08F0390A388F00200065
:101F48006A0891318B218D3120002808B2002908B8
:101F5800B3002A08B4004030AF009C30B0004530D0
:101F6800B10097314C278D3120002F08BF00300871
:101F7800C0003108C100963120268D3120003F086D
:101F8800CD004008CE004108CF004208D000220012
:101F98000F08F0398F002000690891318B218D31AD
:101FA80020002808B2002908B3002A08B4004030ED
:101FB800AF009C30B0004530B10097314C278D31CF
:101FC80020002F08BF003008C0003108C10096313A
:101FD80020268D3120003F08CD004008CE00410862
:101FE800CF004208D000953199258D31013020006D
:081FF800D4070030D53D8A2F0B
:1022B0002000911D582991110800643400344834DD
:1022C0003C348634640080010131890B6329003479
:1022D000FE0012001E00FE0B692900340034013498
:1022E0000234033404340534063407341134123410
:1022F0001334F8008B112000D6017808A000A1014A
:1023000020082100BF00200021082100C000F0109B
:1023100070148B150800F70077082000AB00AC01A3
:10232000AD012B08A0002C08A1002D08A2008E30C2
:10233000AE002E08A300A40193317C2320002008C6
:10234000A8002108A9002208AA00080022000F08FE
:10235000F03909388F002000A2002208F7006C082D
:10236000913179219131F01CB32922000F08F03905
:102370008F000F08F03909388F002000A2002208D2
:10238000F7006B08913179219131F0180800220093
:102390000F08F0398F0041302000A200EE30890B89
:1023A000CF29A20BCF29000022000F08F0390938ED
:1023B0008F0041302000A200EE30890BDD29A20BF6
:1023C000DD290000C52922000F08F03906388F00EA
:1023D0002000A2002208F7006E0891317921913186
:1023E000F01CF02922000F08F0398F000F08F03997
:1023F00006388F002000A2002208F7006D089131F6
:1024000079219131F018080022000F08F0398F006F
:1024100041302000A200EE30890B0C2AA20B0C2ABE
:10242000000022000F08F03906388F0041302000EC
:10243000A200EE30890B1A2AA20B1A2A0000022AE7
:102440008A31EB2292318B31E82392318131E721BD
:1024500092318D31022592318A31EB2292318931CC
:10246000F621923122000F08F0398F00023020004F
:10247000D2004530D100A930890B3C2AD10B3C2A2F
:10248000D20B3C2A00328A31EB22923120006808BC
:1024900021002102031C522A200068082100260284
:1024A000031808008B31E823923189310E219231D3
:1024B00022000F08F0398F0002302000D200453092
:1024C000D100A930890B622AD10B622AD20B622A71
:1024D00000328B31E82308002000A501A11F772AD4
:1024E000A009A109A00A0319A10AA501A50AA31F11
:1024F000822AA209A309A20A0319A30A0130F7003C
:102500007708A506A601A701200821040319B12A0E
:10251000A401A40AA11B962A0130A035A10D890BA4
:102520008D2A0130F7007708A4078A2A0130A635E2
:10253000A70D890B972A21082302031DA12A200831
:102540002202031CA82A2008A2022108A33B261469
:102550000130A136A00C890BA92A0130A402031D69
:10256000962A25080319B92AA609A709A60A031954
:10257000A70A2708A1002608A000080007302100AC
:102580005402031C080001302000A300230821008E
:10259000D307210879020318E22A9131A62192314A
:1025A000F01CD02A22000F08F0398F009131A621AB
:1025B0009231F01CD92A22000F08F0398F00210037
:1025C000D401D30105305302031C080022000F0878
:1025D000F0398F001A302000A4005E30A3006E3066
:1025E000890BF02AA30BF02AA40BF02A000021008B
:1025F000D3017908210020020318042B22000F08C0
:10260000F0390A388F00F92A79082202031CFE2AC1
:1026100022000F08F0398F002100230879020318E7
:102620001A2B9131A6219231F01C142B22000F0895
:10263000F0398F002100D401080020008C018D01A9
:102640008E018F01900122008C018D018E018F017E
:102650009001EF3021008C002F3023008C00E530FA
:1026600021008D0023008D01213024008D000130D8
:1026700027009400203095009601F93021008E004B
:10268000E03023008E00D03021008F00C0302300C6
:102690008F000F30210090000730230090000130A0
:1026A00021009D0020309E000330950068308B0093
:1026B00091012000910121009201200092019901D5
:1026C000013098009501803024009400043092007D
:1026D00028309500200091119211FF309B00FF30AF
:1026E000250091000C309300FF3098000C309A00C8
:1026F000073020009C000800200023080319852BC8
:10270000220821042004031D962B0030A000003075
:10271000A1000030A20008000130A5002508A30791
:102720000130A236A10CA00C890B912BFE302205A2
:102730000319AF2B8C2B0130A5002508A30701300E
:10274000A007003003180130A10700300318013042
:10275000A2070130A236A10CA00C890BAA2BFF30D6
:1027600022050319BC2B9B2B0130A3020130A0359D
:10277000A10DA20D890BB72BA11BC22B0230230286
:102780000318B42B2318CA2BFF30A0057F30A105F6
:10279000FF30A2050310A30C2308A500A601A70182
:1027A0001030A535A60DA70D890BD12B2508A00447
:1027B0002608A1042708A204240803190800A21768
:1027C000080071152000D601711D412C22000F0850
:1027D000F0390A388F002100220879020318FE2BF5
:1027E00022000F08F0398F00210022087902031817
:1027F000FE2B711122000F08F0398F00513021009B
:102800002302031C2B2C22000F08F0398F0002300A
:102810002100E4004530E300A930890B0D2CE30BC7
:102820000D2CE40B0D2C0032513021002302031C2F
:102830002B2C711122000F08F0398F000D30210070
:10284000E400AF30E300B630890B242CE30B242CDA
:10285000E40B242C0000293020005602031C372CE6
:1028600071112100D60122000F08F0398F00853147
:10287000552593319531992593319631A72693317A
:10288000E42B22000F08F0398F000800711520009A
:10289000D601711DAA2C21002208790203187A2C76
:1028A00022000F08F0390A388F002000A500250803
:1028B000F7000230913179219431F01C5D2C220017
:1028C0000F08F0398F0002302000A6004530A50027
:1028D000A930890B692CA50B692CA60B692C003239
:1028E00021002208790203187A2C711122000F08A6
:1028F000F0398F002100230879020318922C8230CE
:102900002000A500DD30890B832CA50B832C003221
:102910002100230879020318922C711122000F085C
:10292000F0398F00293020005602031C9E2C7111B3
:102930002100D60122000F08F0398F00953199252A
:1029400094319631A726943122000F08F0390A38C5
:102950008F00492C22000F08F0398F0008008B13DC
:102960002000A001063020020318D02C8D14103056
:10297000F7008430890BBA2CF70BBA2C20008D108D
:102980008230F700DE30890BC32CF70BC32C0130EB
:10299000F70077082000A00706302002031CB62CA1
:1029A0000630F8001330F700AE30890BD52CF70B4A
:1029B000D52CF80BD52C2000A101063021020318DC
:1029C000FC2C8D140E30F700B230890BE52CF70B80
:1029D000E52C003220008D108230F700DE30890BAC
:1029E000EF2CF70BEF2C0130F70077082000A10740
:1029F00006302102031CE12CA2010630220203183A
:102A00001B2D8D141030F7008430890B052DF70B2A
:102A1000052D20008D108230F700DE30890B0E2D41
:102A2000F70B0E2D0130F70077082000A2070630C3
:102A30002202031C012D8B17080031302400920064
:102A40000130F20602308400983085000008F3005F
:102A50000030721801307307F40074082000E100A0
:102A600091112400161491315821953120006135BF
:102A7000FE392400910091315821953120006F08D2
:102A80002400910091315821953124009614913100
:102A90005821953103142000610D240091009131DB
:102AA000582195312400961591315821953172188D
:102AB000602D24001108F30073082000E000662D4B
:102AC00024001108F30073082000DF00240016160C
:102AD0009131582195312400961591315821953125
:102AE0007218792D24001108F30073082000DE000D
:102AF0007F2D24001108F30073082000DD0024005E
:102B0000161691315821953124009615913158218E
:102B1000953124001108F30073082100E00024001F
:102B200016169131582195312400161591315821EE
:102B300008000800F01C9A2D22000F08F0398F00C1
:102B40009431AF24953122000F08F0398F00913174
:102B5000A6219531F01CAA2D22000F08F0398F0014
:102B60007F302000A400D430A3003130890BB62D73
:102B7000A30BB62DA40BB62D003271122100C90192
:102B8000CA0122000F08F0390A388F002000A30084
:102B90002308F7000F30913179219531F01CCE2DAB
:102BA00022000F08F0398F00F01D080021002208D4
:102BB000790203181E2E4A08803A2000A3008130B3
:102BC0002302031DE62D2D3021004902031C1C2E7B
:102BD000711222000F08F0398F00F0110F08F03940
:102BE0008F009131A6219531F01CF42D22000F08A1
:102BF000F0398F009431AF24953122000F08F0395D
:102C00008F009131E3219531F01C042E22000F0832
:102C1000F0398F007F302000A400D430A300313081
:102C2000890B102EA30B102EA40B102E0032711244
:102C30002100C901CA010800F0110800F0110800C4
:102C400020003F08C3004008C4004108C50003102D
:102C5000440D450DC6004608CC004C08031D392E16
:102C60000030C2000030C1000030C0000030BF00A2
:102C700008003F08C3004008C4004108C5001730E1
:102C8000C536C40CC30C890B402E4308C600460849
:102C9000C700C017FF30BF05FF30C0050030C105B9
:102CA0003F08C8004008C9004108CA00CB018E3067
:102CB000CC02CC1F772E4C08803A8F3E0318692E29
:102CC0000030C2000030C1000030C0000030BF0042
:102CD00008000130CB36CA0CC90CC80C890B6A2E0F
:102CE0000130C3004308CC070319902E692E183019
:102CF0004C02031C8D2E0030C2000030C100003099
:102D0000C0000030BF0008000130C835C90DCA0D31
:102D1000CB0D890B852E0130CC024C08031D842E6F
:102D2000470803199E2EC809C909CA09CB09C80A50
:102D30000319C90A0319CA0A0319CB0A4B08C200AE
:102D40004A08C1004908C0004808BF000800F01E3A
:102D5000432F21005008F70077082000D600EF2EFF
:102D600022000F08F03902388F000230F80052308C
:102D7000F700A630890BBA2EF70BBA2EF80BBA2E35
:102D8000003222000F08F03908388F00F730F700C2
:102D9000C030890BC92EF70BC92E22000F08F0395D
:102DA00001388F000230F8001130F700B730890B7E
:102DB000D72EF70BD72EF80BD72E000022000F08C6
:102DC000F03904388F000230F8001130F700B730C6
:102DD000890BE82EF70BE82EF80BE82E00006F3079
:102DE00021002002031CF82E79082302031CB02EB8
:102DF000EA0102306A020318422F22000F08F0395C
:102E000002388F000230F8005230F700A630890BEC
:102E1000072FF70B072FF80B072F003222000F08A0
:102E2000F03908388F00F730F700C030890B162FC3
:102E3000F70B162F22000F08F03901388F000230EF
:102E4000F8001130F700B730890B242FF70B242F2F
:102E5000F80B242F000022000F08F03904388F00EF
:102E60000230F8001130F700B730890B352FF70B1F
:102E7000352FF80B352F00000130F70077082100BF
:102E8000EA07F92EF0122100EA0120005608F700A7
:102E900077082100D000080020002F08B500300876
:102EA000B6003108B7000310360D370DB8003808EA
:102EB000B9003908031D632F0030AF000030B000A7
:102EC0000030B10008003208B5003308B6003408FD
:102ED000B7000310360D370DB8003808BE003E08A5
:102EE000031D792F0030AF000030B0000030B1007A
:102EF00008003E087B3EB5003508B9072F08B5002D
:102F00003008B6003108B7001030B736B60CB50C33
:102F1000890B852F3508B8003808BE003208B50087
:102F20003308B6003408B7001030B736B60CB50C0D
:102F3000890B952F3508B8003808BE068030B500DB
:102F40003508BE05B017B317FF30B205FF30B30523
:102F50000030B4050030BA000030BB000030BC00C7
:102F60000730B5003508BD002F1CBC2F3208BA074A
:102F70003308BB3D3408BC3D0130B136B00CAF0C5A
:102F8000890BBD2F0130B235B30DB40D890BC32FA2
:102F90000130BD02031DB42F0930B5003508BD0056
:102FA0002F1CD82F3208BA073308BB3D3408BC3D6C
:102FB0000130B136B00CAF0C890BD92F0130BC36C3
:102FC000BB0CBA0C890BDF2F0130BD02031DD02FC3
:102FD0003A08A0003B08A1003C08A2003908B5004F
:102FE0003508A3003E08B6003608A40093317C23C0
:102FF00020002008AF002108B0002208B10008001E
:06300000153414345A34AB
:020000040001F9
:04000E00C2C9FFDD87
:00000001FF
